{
    "_format": "hh-sol-artifact-1",
    "contractName": "NFT",
    "sourceName": "contracts/NFT.sol",
    "abi": [
        {
            "inputs": [],
            "stateMutability": "nonpayable",
            "type": "constructor"
        },
        {
            "anonymous": false,
            "inputs": [
                {
                    "indexed": true,
                    "internalType": "address",
                    "name": "owner",
                    "type": "address"
                },
                {
                    "indexed": true,
                    "internalType": "address",
                    "name": "approved",
                    "type": "address"
                },
                {
                    "indexed": true,
                    "internalType": "uint256",
                    "name": "tokenId",
                    "type": "uint256"
                }
            ],
            "name": "Approval",
            "type": "event"
        },
        {
            "anonymous": false,
            "inputs": [
                {
                    "indexed": true,
                    "internalType": "address",
                    "name": "owner",
                    "type": "address"
                },
                {
                    "indexed": true,
                    "internalType": "address",
                    "name": "operator",
                    "type": "address"
                },
                {
                    "indexed": false,
                    "internalType": "bool",
                    "name": "approved",
                    "type": "bool"
                }
            ],
            "name": "ApprovalForAll",
            "type": "event"
        },
        {
            "anonymous": false,
            "inputs": [
                {
                    "indexed": true,
                    "internalType": "address",
                    "name": "from",
                    "type": "address"
                },
                {
                    "indexed": true,
                    "internalType": "address",
                    "name": "to",
                    "type": "address"
                },
                {
                    "indexed": true,
                    "internalType": "uint256",
                    "name": "tokenId",
                    "type": "uint256"
                }
            ],
            "name": "Transfer",
            "type": "event"
        },
        {
            "inputs": [
                {
                    "internalType": "address",
                    "name": "to",
                    "type": "address"
                },
                {
                    "internalType": "uint256",
                    "name": "tokenId",
                    "type": "uint256"
                }
            ],
            "name": "approve",
            "outputs": [],
            "stateMutability": "nonpayable",
            "type": "function"
        },
        {
            "inputs": [
                {
                    "internalType": "address",
                    "name": "owner",
                    "type": "address"
                }
            ],
            "name": "balanceOf",
            "outputs": [
                {
                    "internalType": "uint256",
                    "name": "",
                    "type": "uint256"
                }
            ],
            "stateMutability": "view",
            "type": "function"
        },
        {
            "inputs": [
                {
                    "internalType": "uint256",
                    "name": "tokenId",
                    "type": "uint256"
                }
            ],
            "name": "getApproved",
            "outputs": [
                {
                    "internalType": "address",
                    "name": "",
                    "type": "address"
                }
            ],
            "stateMutability": "view",
            "type": "function"
        },
        {
            "inputs": [
                {
                    "internalType": "address",
                    "name": "owner",
                    "type": "address"
                },
                {
                    "internalType": "address",
                    "name": "operator",
                    "type": "address"
                }
            ],
            "name": "isApprovedForAll",
            "outputs": [
                {
                    "internalType": "bool",
                    "name": "",
                    "type": "bool"
                }
            ],
            "stateMutability": "view",
            "type": "function"
        },
        {
            "inputs": [
                {
                    "internalType": "string",
                    "name": "_tokenURI",
                    "type": "string"
                }
            ],
            "name": "mint",
            "outputs": [
                {
                    "internalType": "uint256",
                    "name": "",
                    "type": "uint256"
                }
            ],
            "stateMutability": "nonpayable",
            "type": "function"
        },
        {
            "inputs": [],
            "name": "name",
            "outputs": [
                {
                    "internalType": "string",
                    "name": "",
                    "type": "string"
                }
            ],
            "stateMutability": "view",
            "type": "function"
        },
        {
            "inputs": [
                {
                    "internalType": "uint256",
                    "name": "tokenId",
                    "type": "uint256"
                }
            ],
            "name": "ownerOf",
            "outputs": [
                {
                    "internalType": "address",
                    "name": "",
                    "type": "address"
                }
            ],
            "stateMutability": "view",
            "type": "function"
        },
        {
            "inputs": [
                {
                    "internalType": "address",
                    "name": "from",
                    "type": "address"
                },
                {
                    "internalType": "address",
                    "name": "to",
                    "type": "address"
                },
                {
                    "internalType": "uint256",
                    "name": "tokenId",
                    "type": "uint256"
                }
            ],
            "name": "safeTransferFrom",
            "outputs": [],
            "stateMutability": "nonpayable",
            "type": "function"
        },
        {
            "inputs": [
                {
                    "internalType": "address",
                    "name": "from",
                    "type": "address"
                },
                {
                    "internalType": "address",
                    "name": "to",
                    "type": "address"
                },
                {
                    "internalType": "uint256",
                    "name": "tokenId",
                    "type": "uint256"
                },
                {
                    "internalType": "bytes",
                    "name": "_data",
                    "type": "bytes"
                }
            ],
            "name": "safeTransferFrom",
            "outputs": [],
            "stateMutability": "nonpayable",
            "type": "function"
        },
        {
            "inputs": [
                {
                    "internalType": "address",
                    "name": "operator",
                    "type": "address"
                },
                {
                    "internalType": "bool",
                    "name": "approved",
                    "type": "bool"
                }
            ],
            "name": "setApprovalForAll",
            "outputs": [],
            "stateMutability": "nonpayable",
            "type": "function"
        },
        {
            "inputs": [
                {
                    "internalType": "bytes4",
                    "name": "interfaceId",
                    "type": "bytes4"
                }
            ],
            "name": "supportsInterface",
            "outputs": [
                {
                    "internalType": "bool",
                    "name": "",
                    "type": "bool"
                }
            ],
            "stateMutability": "view",
            "type": "function"
        },
        {
            "inputs": [],
            "name": "symbol",
            "outputs": [
                {
                    "internalType": "string",
                    "name": "",
                    "type": "string"
                }
            ],
            "stateMutability": "view",
            "type": "function"
        },
        {
            "inputs": [],
            "name": "tokenCount",
            "outputs": [
                {
                    "internalType": "uint256",
                    "name": "",
                    "type": "uint256"
                }
            ],
            "stateMutability": "view",
            "type": "function"
        },
        {
            "inputs": [
                {
                    "internalType": "uint256",
                    "name": "tokenId",
                    "type": "uint256"
                }
            ],
            "name": "tokenURI",
            "outputs": [
                {
                    "internalType": "string",
                    "name": "",
                    "type": "string"
                }
            ],
            "stateMutability": "view",
            "type": "function"
        },
        {
            "inputs": [
                {
                    "internalType": "address",
                    "name": "from",
                    "type": "address"
                },
                {
                    "internalType": "address",
                    "name": "to",
                    "type": "address"
                },
                {
                    "internalType": "uint256",
                    "name": "tokenId",
                    "type": "uint256"
                }
            ],
            "name": "transferFrom",
            "outputs": [],
            "stateMutability": "nonpayable",
            "type": "function"
        }
    ],
    "bytecode": "0x60806040523480156200001157600080fd5b506040518060400160405280600e81526020017f4d61726b6574706c6163654e46540000000000000000000000000000000000008152506040518060400160405280600381526020017f4e46540000000000000000000000000000000000000000000000000000000000815250816000908051906020019062000096929190620000b8565b508060019080519060200190620000af929190620000b8565b505050620001cd565b828054620000c69062000168565b90600052602060002090601f016020900481019282620000ea576000855562000136565b82601f106200010557805160ff191683800117855562000136565b8280016001018555821562000136579182015b828111156200013557825182559160200191906001019062000118565b5b50905062000145919062000149565b5090565b5b80821115620001645760008160009055506001016200014a565b5090565b600060028204905060018216806200018157607f821691505b602082108114156200019857620001976200019e565b5b50919050565b7f4e487b7100000000000000000000000000000000000000000000000000000000600052602260045260246000fd5b612b9680620001dd6000396000f3fe608060405234801561001057600080fd5b50600436106100f55760003560e01c806370a0823111610097578063b88d4fde11610066578063b88d4fde14610284578063c87b56dd146102a0578063d85d3d27146102d0578063e985e9c514610300576100f5565b806370a08231146101fc57806395d89b411461022c5780639f181b5e1461024a578063a22cb46514610268576100f5565b8063095ea7b3116100d3578063095ea7b31461017857806323b872dd1461019457806342842e0e146101b05780636352211e146101cc576100f5565b806301ffc9a7146100fa57806306fdde031461012a578063081812fc14610148575b600080fd5b610114600480360381019061010f9190611c02565b610330565b6040516101219190612049565b60405180910390f35b610132610412565b60405161013f9190612064565b60405180910390f35b610162600480360381019061015d9190611c95565b6104a4565b60405161016f9190611fe2565b60405180910390f35b610192600480360381019061018d9190611bc6565b610529565b005b6101ae60048036038101906101a99190611ac0565b610641565b005b6101ca60048036038101906101c59190611ac0565b6106a1565b005b6101e660048036038101906101e19190611c95565b6106c1565b6040516101f39190611fe2565b60405180910390f35b61021660048036038101906102119190611a5b565b610773565b6040516102239190612286565b60405180910390f35b61023461082b565b6040516102419190612064565b60405180910390f35b6102526108bd565b60405161025f9190612286565b60405180910390f35b610282600480360381019061027d9190611b8a565b6108c3565b005b61029e60048036038101906102999190611b0f565b6108d9565b005b6102ba60048036038101906102b59190611c95565b61093b565b6040516102c79190612064565b60405180910390f35b6102ea60048036038101906102e59190611c54565b610a8d565b6040516102f79190612286565b60405180910390f35b61031a60048036038101906103159190611a84565b610ac9565b6040516103279190612049565b60405180910390f35b60007f80ac58cd000000000000000000000000000000000000000000000000000000007bffffffffffffffffffffffffffffffffffffffffffffffffffffffff1916827bffffffffffffffffffffffffffffffffffffffffffffffffffffffff191614806103fb57507f5b5e139f000000000000000000000000000000000000000000000000000000007bffffffffffffffffffffffffffffffffffffffffffffffffffffffff1916827bffffffffffffffffffffffffffffffffffffffffffffffffffffffff1916145b8061040b575061040a82610b5d565b5b9050919050565b606060008054610421906124dc565b80601f016020809104026020016040519081016040528092919081815260200182805461044d906124dc565b801561049a5780601f1061046f5761010080835404028352916020019161049a565b820191906000526020600020905b81548152906001019060200180831161047d57829003601f168201915b5050505050905090565b60006104af82610bc7565b6104ee576040517f08c379a00000000000000000000000000000000000000000000000000000000081526004016104e590612206565b60405180910390fd5b6004600083815260200190815260200160002060009054906101000a900473ffffffffffffffffffffffffffffffffffffffff169050919050565b6000610534826106c1565b90508073ffffffffffffffffffffffffffffffffffffffff168373ffffffffffffffffffffffffffffffffffffffff1614156105a5576040517f08c379a000000000000000000000000000000000000000000000000000000000815260040161059c90612246565b60405180910390fd5b8073ffffffffffffffffffffffffffffffffffffffff166105c4610c33565b73ffffffffffffffffffffffffffffffffffffffff1614806105f357506105f2816105ed610c33565b610ac9565b5b610632576040517f08c379a000000000000000000000000000000000000000000000000000000000815260040161062990612146565b60405180910390fd5b61063c8383610c3b565b505050565b61065261064c610c33565b82610cf4565b610691576040517f08c379a000000000000000000000000000000000000000000000000000000000815260040161068890612266565b60405180910390fd5b61069c838383610dd2565b505050565b6106bc838383604051806020016040528060008152506108d9565b505050565b6000806002600084815260200190815260200160002060009054906101000a900473ffffffffffffffffffffffffffffffffffffffff169050600073ffffffffffffffffffffffffffffffffffffffff168173ffffffffffffffffffffffffffffffffffffffff16141561076a576040517f08c379a000000000000000000000000000000000000000000000000000000000815260040161076190612186565b60405180910390fd5b80915050919050565b60008073ffffffffffffffffffffffffffffffffffffffff168273ffffffffffffffffffffffffffffffffffffffff1614156107e4576040517f08c379a00000000000000000000000000000000000000000000000000000000081526004016107db90612166565b60405180910390fd5b600360008373ffffffffffffffffffffffffffffffffffffffff1673ffffffffffffffffffffffffffffffffffffffff168152602001908152602001600020549050919050565b60606001805461083a906124dc565b80601f0160208091040260200160405190810160405280929190818152602001828054610866906124dc565b80156108b35780601f10610888576101008083540402835291602001916108b3565b820191906000526020600020905b81548152906001019060200180831161089657829003601f168201915b5050505050905090565b60075481565b6108d56108ce610c33565b8383611039565b5050565b6108ea6108e4610c33565b83610cf4565b610929576040517f08c379a000000000000000000000000000000000000000000000000000000000815260040161092090612266565b60405180910390fd5b610935848484846111a6565b50505050565b606061094682610bc7565b610985576040517f08c379a000000000000000000000000000000000000000000000000000000000815260040161097c906121e6565b60405180910390fd5b60006006600084815260200190815260200160002080546109a5906124dc565b80601f01602080910402602001604051908101604052809291908181526020018280546109d1906124dc565b8015610a1e5780601f106109f357610100808354040283529160200191610a1e565b820191906000526020600020905b815481529060010190602001808311610a0157829003601f168201915b505050505090506000610a2f611202565b9050600081511415610a45578192505050610a88565b600082511115610a7a578082604051602001610a62929190611fbe565b60405160208183030381529060405292505050610a88565b610a8384611219565b925050505b919050565b600060076000815480929190610aa29061253f565b9190505550610ab3336007546112c0565b610abf6007548361149a565b6007549050919050565b6000600560008473ffffffffffffffffffffffffffffffffffffffff1673ffffffffffffffffffffffffffffffffffffffff16815260200190815260200160002060008373ffffffffffffffffffffffffffffffffffffffff1673ffffffffffffffffffffffffffffffffffffffff16815260200190815260200160002060009054906101000a900460ff16905092915050565b60007f01ffc9a7000000000000000000000000000000000000000000000000000000007bffffffffffffffffffffffffffffffffffffffffffffffffffffffff1916827bffffffffffffffffffffffffffffffffffffffffffffffffffffffff1916149050919050565b60008073ffffffffffffffffffffffffffffffffffffffff166002600084815260200190815260200160002060009054906101000a900473ffffffffffffffffffffffffffffffffffffffff1673ffffffffffffffffffffffffffffffffffffffff1614159050919050565b600033905090565b816004600083815260200190815260200160002060006101000a81548173ffffffffffffffffffffffffffffffffffffffff021916908373ffffffffffffffffffffffffffffffffffffffff160217905550808273ffffffffffffffffffffffffffffffffffffffff16610cae836106c1565b73ffffffffffffffffffffffffffffffffffffffff167f8c5be1e5ebec7d5bd14f71427d1e84f3dd0314c0f7b2291e5b200ac8c7c3b92560405160405180910390a45050565b6000610cff82610bc7565b610d3e576040517f08c379a0000000000000000000000000000000000000000000000000000000008152600401610d3590612126565b60405180910390fd5b6000610d49836106c1565b90508073ffffffffffffffffffffffffffffffffffffffff168473ffffffffffffffffffffffffffffffffffffffff161480610d8b5750610d8a8185610ac9565b5b80610dc957508373ffffffffffffffffffffffffffffffffffffffff16610db1846104a4565b73ffffffffffffffffffffffffffffffffffffffff16145b91505092915050565b8273ffffffffffffffffffffffffffffffffffffffff16610df2826106c1565b73ffffffffffffffffffffffffffffffffffffffff1614610e48576040517f08c379a0000000000000000000000000000000000000000000000000000000008152600401610e3f906120a6565b60405180910390fd5b600073ffffffffffffffffffffffffffffffffffffffff168273ffffffffffffffffffffffffffffffffffffffff161415610eb8576040517f08c379a0000000000000000000000000000000000000000000000000000000008152600401610eaf906120e6565b60405180910390fd5b610ec383838361150e565b610ece600082610c3b565b6001600360008573ffffffffffffffffffffffffffffffffffffffff1673ffffffffffffffffffffffffffffffffffffffff1681526020019081526020016000206000828254610f1e91906123f2565b925050819055506001600360008473ffffffffffffffffffffffffffffffffffffffff1673ffffffffffffffffffffffffffffffffffffffff1681526020019081526020016000206000828254610f75919061236b565b92505081905550816002600083815260200190815260200160002060006101000a81548173ffffffffffffffffffffffffffffffffffffffff021916908373ffffffffffffffffffffffffffffffffffffffff160217905550808273ffffffffffffffffffffffffffffffffffffffff168473ffffffffffffffffffffffffffffffffffffffff167fddf252ad1be2c89b69c2b068fc378daa952ba7f163c4a11628f55a4df523b3ef60405160405180910390a4611034838383611513565b505050565b8173ffffffffffffffffffffffffffffffffffffffff168373ffffffffffffffffffffffffffffffffffffffff1614156110a8576040517f08c379a000000000000000000000000000000000000000000000000000000000815260040161109f90612106565b60405180910390fd5b80600560008573ffffffffffffffffffffffffffffffffffffffff1673ffffffffffffffffffffffffffffffffffffffff16815260200190815260200160002060008473ffffffffffffffffffffffffffffffffffffffff1673ffffffffffffffffffffffffffffffffffffffff16815260200190815260200160002060006101000a81548160ff0219169083151502179055508173ffffffffffffffffffffffffffffffffffffffff168373ffffffffffffffffffffffffffffffffffffffff167f17307eab39ab6107e8899845ad3d59bd9653f200f220920489ca2b5937696c31836040516111999190612049565b60405180910390a3505050565b6111b1848484610dd2565b6111bd84848484611518565b6111fc576040517f08c379a00000000000000000000000000000000000000000000000000000000081526004016111f390612086565b60405180910390fd5b50505050565b606060405180602001604052806000815250905090565b606061122482610bc7565b611263576040517f08c379a000000000000000000000000000000000000000000000000000000000815260040161125a90612226565b60405180910390fd5b600061126d611202565b9050600081511161128d57604051806020016040528060008152506112b8565b80611297846116af565b6040516020016112a8929190611fbe565b6040516020818303038152906040525b915050919050565b600073ffffffffffffffffffffffffffffffffffffffff168273ffffffffffffffffffffffffffffffffffffffff161415611330576040517f08c379a0000000000000000000000000000000000000000000000000000000008152600401611327906121c6565b60405180910390fd5b61133981610bc7565b15611379576040517f08c379a0000000000000000000000000000000000000000000000000000000008152600401611370906120c6565b60405180910390fd5b6113856000838361150e565b6001600360008473ffffffffffffffffffffffffffffffffffffffff1673ffffffffffffffffffffffffffffffffffffffff16815260200190815260200160002060008282546113d5919061236b565b92505081905550816002600083815260200190815260200160002060006101000a81548173ffffffffffffffffffffffffffffffffffffffff021916908373ffffffffffffffffffffffffffffffffffffffff160217905550808273ffffffffffffffffffffffffffffffffffffffff16600073ffffffffffffffffffffffffffffffffffffffff167fddf252ad1be2c89b69c2b068fc378daa952ba7f163c4a11628f55a4df523b3ef60405160405180910390a461149660008383611513565b5050565b6114a382610bc7565b6114e2576040517f08c379a00000000000000000000000000000000000000000000000000000000081526004016114d9906121a6565b60405180910390fd5b8060066000848152602001908152602001600020908051906020019061150992919061187f565b505050565b505050565b505050565b60006115398473ffffffffffffffffffffffffffffffffffffffff1661185c565b156116a2578373ffffffffffffffffffffffffffffffffffffffff1663150b7a02611562610c33565b8786866040518563ffffffff1660e01b81526004016115849493929190611ffd565b602060405180830381600087803b15801561159e57600080fd5b505af19250505080156115cf57506040513d601f19601f820116820180604052508101906115cc9190611c2b565b60015b611652573d80600081146115ff576040519150601f19603f3d011682016040523d82523d6000602084013e611604565b606091505b5060008151141561164a576040517f08c379a000000000000000000000000000000000000000000000000000000000815260040161164190612086565b60405180910390fd5b805181602001fd5b63150b7a0260e01b7bffffffffffffffffffffffffffffffffffffffffffffffffffffffff1916817bffffffffffffffffffffffffffffffffffffffffffffffffffffffff1916149150506116a7565b600190505b949350505050565b606060008214156116f7576040518060400160405280600181526020017f30000000000000000000000000000000000000000000000000000000000000008152509050611857565b600082905060005b600082146117295780806117129061253f565b915050600a8261172291906123c1565b91506116ff565b60008167ffffffffffffffff81111561176b577f4e487b7100000000000000000000000000000000000000000000000000000000600052604160045260246000fd5b6040519080825280601f01601f19166020018201604052801561179d5781602001600182028036833780820191505090505b5090505b60008514611850576001826117b691906123f2565b9150600a856117c59190612588565b60306117d1919061236b565b60f81b81838151811061180d577f4e487b7100000000000000000000000000000000000000000000000000000000600052603260045260246000fd5b60200101907effffffffffffffffffffffffffffffffffffffffffffffffffffffffffffff1916908160001a905350600a8561184991906123c1565b94506117a1565b8093505050505b919050565b6000808273ffffffffffffffffffffffffffffffffffffffff163b119050919050565b82805461188b906124dc565b90600052602060002090601f0160209004810192826118ad57600085556118f4565b82601f106118c657805160ff19168380011785556118f4565b828001600101855582156118f4579182015b828111156118f35782518255916020019190600101906118d8565b5b5090506119019190611905565b5090565b5b8082111561191e576000816000905550600101611906565b5090565b6000611935611930846122c6565b6122a1565b90508281526020810184848401111561194d57600080fd5b61195884828561249a565b509392505050565b600061197361196e846122f7565b6122a1565b90508281526020810184848401111561198b57600080fd5b61199684828561249a565b509392505050565b6000813590506119ad81612b04565b92915050565b6000813590506119c281612b1b565b92915050565b6000813590506119d781612b32565b92915050565b6000815190506119ec81612b32565b92915050565b600082601f830112611a0357600080fd5b8135611a13848260208601611922565b91505092915050565b600082601f830112611a2d57600080fd5b8135611a3d848260208601611960565b91505092915050565b600081359050611a5581612b49565b92915050565b600060208284031215611a6d57600080fd5b6000611a7b8482850161199e565b91505092915050565b60008060408385031215611a9757600080fd5b6000611aa58582860161199e565b9250506020611ab68582860161199e565b9150509250929050565b600080600060608486031215611ad557600080fd5b6000611ae38682870161199e565b9350506020611af48682870161199e565b9250506040611b0586828701611a46565b9150509250925092565b60008060008060808587031215611b2557600080fd5b6000611b338782880161199e565b9450506020611b448782880161199e565b9350506040611b5587828801611a46565b925050606085013567ffffffffffffffff811115611b7257600080fd5b611b7e878288016119f2565b91505092959194509250565b60008060408385031215611b9d57600080fd5b6000611bab8582860161199e565b9250506020611bbc858286016119b3565b9150509250929050565b60008060408385031215611bd957600080fd5b6000611be78582860161199e565b9250506020611bf885828601611a46565b9150509250929050565b600060208284031215611c1457600080fd5b6000611c22848285016119c8565b91505092915050565b600060208284031215611c3d57600080fd5b6000611c4b848285016119dd565b91505092915050565b600060208284031215611c6657600080fd5b600082013567ffffffffffffffff811115611c8057600080fd5b611c8c84828501611a1c565b91505092915050565b600060208284031215611ca757600080fd5b6000611cb584828501611a46565b91505092915050565b611cc781612426565b82525050565b611cd681612438565b82525050565b6000611ce782612328565b611cf1818561233e565b9350611d018185602086016124a9565b611d0a81612675565b840191505092915050565b6000611d2082612333565b611d2a818561234f565b9350611d3a8185602086016124a9565b611d4381612675565b840191505092915050565b6000611d5982612333565b611d638185612360565b9350611d738185602086016124a9565b80840191505092915050565b6000611d8c60328361234f565b9150611d9782612686565b604082019050919050565b6000611daf60258361234f565b9150611dba826126d5565b604082019050919050565b6000611dd2601c8361234f565b9150611ddd82612724565b602082019050919050565b6000611df560248361234f565b9150611e008261274d565b604082019050919050565b6000611e1860198361234f565b9150611e238261279c565b602082019050919050565b6000611e3b602c8361234f565b9150611e46826127c5565b604082019050919050565b6000611e5e60388361234f565b9150611e6982612814565b604082019050919050565b6000611e81602a8361234f565b9150611e8c82612863565b604082019050919050565b6000611ea460298361234f565b9150611eaf826128b2565b604082019050919050565b6000611ec7602e8361234f565b9150611ed282612901565b604082019050919050565b6000611eea60208361234f565b9150611ef582612950565b602082019050919050565b6000611f0d60318361234f565b9150611f1882612979565b604082019050919050565b6000611f30602c8361234f565b9150611f3b826129c8565b604082019050919050565b6000611f53602f8361234f565b9150611f5e82612a17565b604082019050919050565b6000611f7660218361234f565b9150611f8182612a66565b604082019050919050565b6000611f9960318361234f565b9150611fa482612ab5565b604082019050919050565b611fb881612490565b82525050565b6000611fca8285611d4e565b9150611fd68284611d4e565b91508190509392505050565b6000602082019050611ff76000830184611cbe565b92915050565b60006080820190506120126000830187611cbe565b61201f6020830186611cbe565b61202c6040830185611faf565b818103606083015261203e8184611cdc565b905095945050505050565b600060208201905061205e6000830184611ccd565b92915050565b6000602082019050818103600083015261207e8184611d15565b905092915050565b6000602082019050818103600083015261209f81611d7f565b9050919050565b600060208201905081810360008301526120bf81611da2565b9050919050565b600060208201905081810360008301526120df81611dc5565b9050919050565b600060208201905081810360008301526120ff81611de8565b9050919050565b6000602082019050818103600083015261211f81611e0b565b9050919050565b6000602082019050818103600083015261213f81611e2e565b9050919050565b6000602082019050818103600083015261215f81611e51565b9050919050565b6000602082019050818103600083015261217f81611e74565b9050919050565b6000602082019050818103600083015261219f81611e97565b9050919050565b600060208201905081810360008301526121bf81611eba565b9050919050565b600060208201905081810360008301526121df81611edd565b9050919050565b600060208201905081810360008301526121ff81611f00565b9050919050565b6000602082019050818103600083015261221f81611f23565b9050919050565b6000602082019050818103600083015261223f81611f46565b9050919050565b6000602082019050818103600083015261225f81611f69565b9050919050565b6000602082019050818103600083015261227f81611f8c565b9050919050565b600060208201905061229b6000830184611faf565b92915050565b60006122ab6122bc565b90506122b7828261250e565b919050565b6000604051905090565b600067ffffffffffffffff8211156122e1576122e0612646565b5b6122ea82612675565b9050602081019050919050565b600067ffffffffffffffff82111561231257612311612646565b5b61231b82612675565b9050602081019050919050565b600081519050919050565b600081519050919050565b600082825260208201905092915050565b600082825260208201905092915050565b600081905092915050565b600061237682612490565b915061238183612490565b9250827fffffffffffffffffffffffffffffffffffffffffffffffffffffffffffffffff038211156123b6576123b56125b9565b5b828201905092915050565b60006123cc82612490565b91506123d783612490565b9250826123e7576123e66125e8565b5b828204905092915050565b60006123fd82612490565b915061240883612490565b92508282101561241b5761241a6125b9565b5b828203905092915050565b600061243182612470565b9050919050565b60008115159050919050565b60007fffffffff0000000000000000000000000000000000000000000000000000000082169050919050565b600073ffffffffffffffffffffffffffffffffffffffff82169050919050565b6000819050919050565b82818337600083830152505050565b60005b838110156124c75780820151818401526020810190506124ac565b838111156124d6576000848401525b50505050565b600060028204905060018216806124f457607f821691505b6020821081141561250857612507612617565b5b50919050565b61251782612675565b810181811067ffffffffffffffff8211171561253657612535612646565b5b80604052505050565b600061254a82612490565b91507fffffffffffffffffffffffffffffffffffffffffffffffffffffffffffffffff82141561257d5761257c6125b9565b5b600182019050919050565b600061259382612490565b915061259e83612490565b9250826125ae576125ad6125e8565b5b828206905092915050565b7f4e487b7100000000000000000000000000000000000000000000000000000000600052601160045260246000fd5b7f4e487b7100000000000000000000000000000000000000000000000000000000600052601260045260246000fd5b7f4e487b7100000000000000000000000000000000000000000000000000000000600052602260045260246000fd5b7f4e487b7100000000000000000000000000000000000000000000000000000000600052604160045260246000fd5b6000601f19601f8301169050919050565b7f4552433732313a207472616e7366657220746f206e6f6e20455243373231526560008201527f63656976657220696d706c656d656e7465720000000000000000000000000000602082015250565b7f4552433732313a207472616e736665722066726f6d20696e636f72726563742060008201527f6f776e6572000000000000000000000000000000000000000000000000000000602082015250565b7f4552433732313a20746f6b656e20616c7265616479206d696e74656400000000600082015250565b7f4552433732313a207472616e7366657220746f20746865207a65726f2061646460008201527f7265737300000000000000000000000000000000000000000000000000000000602082015250565b7f4552433732313a20617070726f766520746f2063616c6c657200000000000000600082015250565b7f4552433732313a206f70657261746f7220717565727920666f72206e6f6e657860008201527f697374656e7420746f6b656e0000000000000000000000000000000000000000602082015250565b7f4552433732313a20617070726f76652063616c6c6572206973206e6f74206f7760008201527f6e6572206e6f7220617070726f76656420666f7220616c6c0000000000000000602082015250565b7f4552433732313a2062616c616e636520717565727920666f7220746865207a6560008201527f726f206164647265737300000000000000000000000000000000000000000000602082015250565b7f4552433732313a206f776e657220717565727920666f72206e6f6e657869737460008201527f656e7420746f6b656e0000000000000000000000000000000000000000000000602082015250565b7f45524337323155524953746f726167653a2055524920736574206f66206e6f6e60008201527f6578697374656e7420746f6b656e000000000000000000000000000000000000602082015250565b7f4552433732313a206d696e7420746f20746865207a65726f2061646472657373600082015250565b7f45524337323155524953746f726167653a2055524920717565727920666f722060008201527f6e6f6e6578697374656e7420746f6b656e000000000000000000000000000000602082015250565b7f4552433732313a20617070726f76656420717565727920666f72206e6f6e657860008201527f697374656e7420746f6b656e0000000000000000000000000000000000000000602082015250565b7f4552433732314d657461646174613a2055524920717565727920666f72206e6f60008201527f6e6578697374656e7420746f6b656e0000000000000000000000000000000000602082015250565b7f4552433732313a20617070726f76616c20746f2063757272656e74206f776e6560008201527f7200000000000000000000000000000000000000000000000000000000000000602082015250565b7f4552433732313a207472616e736665722063616c6c6572206973206e6f74206f60008201527f776e6572206e6f7220617070726f766564000000000000000000000000000000602082015250565b612b0d81612426565b8114612b1857600080fd5b50565b612b2481612438565b8114612b2f57600080fd5b50565b612b3b81612444565b8114612b4657600080fd5b50565b612b5281612490565b8114612b5d57600080fd5b5056fea2646970667358221220fc30290382a613634a8aab70a72591803bc9649b014a42378579dea7d7af2f7964736f6c63430008040033",
    "linkReferences": {},
    "deployedLinkReferences": {}
}